:020000040000fa
:080000000001040000000000f3
:020000040000fa
:100200004f49210000792200000188000000000011
:100210000a00070011000700000020000000e000b5
:10022000020032000000020000000000021802007c
:10023000000000000040da000000fe004440a90079
:10024000000020000000e000030032000000200059
:10025000a00188004440a8000000060020542200ad
:10026000010020001500370062004000e0804800d7
:10027000910188009001ba0062004000e0804800cf
:10028000910188009002ba0062004000e0804800be
:100290000002eb006028e10004003a000059eb0086
:1002a0008301e900fdff3e00040037006128e10002
:1002b000010032000082eb00050007009101880078
:1002c0001001ba000200e000e7ff3a00000005005c
:1002d000910188008002780062004000e0804800c0
:1002e0003559ba008301e900080032002559ba00e7
:1002f0008301e900050032000400e000f4ff320051
:1003000015d9ba008301e900f1ff3a0000000600a8
:10031000ac0b040000000000900c04000000000082
:10032000101f040000000000889fbe00e30440008e
:100330000900a100808f54004a003600e38f54006a
:1003400001003e0049002000129e80000200e000f3
:1003500002003200820078000c003700413c21008e
:1003600003003700908f5400230036008080e8009f
:10037000110078000000e000faff3a000f0037009b
:10038000908f54001c0036008080e8001100780037
:100390000000e000faff3a0012017800413c210021
:1003a00003003700908f5400130036008080e8006f
:1003b00011007800820f5000faff3a00089e80007a
:1003c000890f54000100310009047800080078000a
:1003d0006d0007000000e00004003a00890f54009f
:1003e000200032000804d100f5ff3700081878001b
:1003f00031000700d4ff3700110178009201780026
:1004000064805100890f50000300310012009000f9
:100410008008780007003700090041008008780054
:1004200092019000130098001100780012881400c7
:1004300009097800910078000100e0000500320011
:10044000110090000000e000020032000180e8008e
:10045000010037000000eb00109e88000280e800d9
:10046000010037000000eb004f04be000000060052
:10047000000478000600370082004100409e8000a2
:10048000e10078000200e800309e880001000100d1
:10049000329e8000509e8000800f5100f6ff390090
:1004a000c0372100409e880020022000509e880016
:1004b000080078003b0007000000e0003100320037
:1004c0008080e90091027800e38f52002d00360011
:1004d0000508a3002b003a00229e80000200e000e5
:1004e00002003200828f50000400310002087800c0
:1004f000219e8800160037000301780092019000c9
:100500000300e00002003200818f5100faff390041
:100510001202780004004100808f50001900390059
:10052000810f500003003a00050942008200780064
:10053000070037000300e0000300320005804000a0
:10054000808f51000f00390093009800110198002e
:10055000110190000200e0000a003200118040000a
:10056000820f500007003a00203c21000008eb00f9
:1005700011009000110178009008410010009000d7
:1005800090009800000006000000e0000300340026
:100590000c000700e10f400001003a000000eb00f2
:1005a000000006000c02e20004003d000f42ab0018
:1005b000020032000f02ab00feff32000040da0002
:1005c000feff3700889fbe00800478007a13e200a7
:1005d00004003a000000eb00100007000000e000fb
:1005e0000a003500d09b80000900e00002003a00bc
:1005f000000478000600370000047800090040007d
:10060000060007000000e00001003d000084eb0050
:10061000080078004f04be0000000600800078004b
:100620000000e00004003a00c03c2100d09b88009c
:1006300001017800060037000081eb0040492100ed
:10064000808f500002003e00d19b88000001eb002b
:100650000200780000000600889fbe008a9fbe004e
:100660008c1f78005d0107006401330003866c0075
:100670006450e100240032006420e10027003200d1
:100680006150e100220032006120e10021003200cf
:100690008b854200eb07b1000134b800003ab80086
:1006a0000804420089844a00013ab8000030b800ca
:1006b0008880400009014a00040033000000400027
:1006c00081804800020149008b05e900c909dd006d
:1006d000830170000100320013002000c814de0006
:1006e0004814dd004709de001200b200c808de0031
:1006f000088470005101070001f0a1000cf0a70070
:1007000001f0a000460137006120e10048013200fd
:100710000801be000200be00f7ff37006150e10093
:10072000fcff3a0042013700889fbe008a9fbe004e
:10073000010578000100e0000400350008003c00dd
:100740000000e000200032000500370060001000cb
:10075000e080180002003b0001f02c001a00370076
:100760000004be006011b8006b0920000982cf00b0
:10077000020039000882cf000441b00069425200f3
:100780000e00320008003b008281710061016400ac
:100790008904d1000884d3008b05e8000442e800f6
:1007a000f9ff3a00050037000804440089844c0032
:1007b0008b05e9000442e900fbff3a001f01070036
:1007c0000af0a70001f0a0004f05be004f04be00d4
:1007d0000000060003f0a200889fbe008a9fbe00b2
:1007e0008c1f7800fd000700040133006450e10015
:1007f0004f0032006420e1005200320003826c009e
:1008000007003b000905d0000306d000820f54000a
:100810000c065d00020039000200320089017800f8
:10082000030678008582550004003d000003fd00aa
:100830008103fd008502ea008b854200840f72006f
:1008400002003b0060001000e08018006011b8005a
:100850000005eb007a28e1000a0039000600780064
:10086000c75ddd00f707b200878075002d003700f7
:10087000828171000a017800610560008180d100e9
:100880000080d3008502e900f9ff3b000604400028
:100890008784480002003b0060041400e0841c00d0
:1008a0000988a300070032008a81710082817100eb
:1008b000610164008904d1000884d3008b05e8003d
:1008c000170037000978a30013003a000b00e0007e
:1008d000130034008b05e9000804440089844c00af
:1008e0000a4474000978a3000d003a000b00e000f0
:1008f000070034008b05e9000804440089844c009b
:1009000001003a000b0020000978a300f7ff320035
:100910000001eb0002003700828171000a017800bb
:10092000c60007000cf0a70001f0a000bc003700d3
:100930006420e10002003a00838f6c00bc003300a9
:100940000801be000200be00b50037001400200000
:10095000e000370004002000de003700889fbe0062
:100960008a9fbe008c1f78000004be00f4000700c0
:100970000478a30026003a006120e100250032003f
:1009800009f8a30025003a006420e10021003200ac
:10099000f507b1000508a300020032000000400086
:1009a000818048006044b80003102000020020004d
:1009b00000004000818048000805440089854c0003
:1009c0000a0541008b8549000a0550008b855800b7
:1009d000030033000a00be00020474008384740024
:1009e0008301d1000281d300830f7100f0ff3a0030
:1009f0008904d1000884d300600149008201780095
:100a0000c1adde00fb07b0008c000700840037009a
:100a10000960a0000800be0081003700120220001b
:100a2000c29b8800f0ff2f00f1ff27007c003700f9
:100a30000001be00c20007000470a70003f0a1007f
:100a40006509b100160032000d0035006828e1008c
:100a500006003500f0ff2f00f1ff27000300e00043
:100a600013003b00010028000000050000004000ca
:100a7000818048008502e900fcff3a000800370049
:100a8000f88f420002003c008000eb0000000500ef
:100a90008100d1000080d3008502e800fcff3a000d
:100aa0000300e00002003b0060001000e08018003e
:100ab00000000600889fbe008a9fbe008c1f780041
:100ac000460007004d00330003866c006450e100cf
:100ad0002e0032006420e100330032006150e1005a
:100ae0002f0032006120e100310032008585550081
:100af000eb07b000090020000804200005003700c3
:100b00000804440089844c000a00310006034300b5
:100b100087834b000001530081815b00f8ff3300a5
:100b20000203be000800a0000804440089844c00b1
:100b3000f6ff3900c639dd00830173000100320081
:100b4000130020008904d1000884d3000998a30071
:100b5000050032000800a7000300a0008904d100ae
:100b60000884d3008b05e8008904d1000884d300f1
:100b70000001eb000281d2003000070001f0a1006b
:100b80000cf0a70001f0a000250037006420e10070
:100b9000270032000801be000200be00f7ff370048
:100ba0006120e100220032006000b800f3ff37004e
:100bb0000000200001f82700f0ff37000081eb0063
:100bc000740037000001eb0072003700f4ff2f00c3
:100bd000400037000001eb00d70037000004be00e2
:100be000570007000003be000405be000200be005f
:100bf00053000700844f7500000006000200be008d
:100c00006450e100050036006420e1000200360077
:100c10000968a30001003a000800be000160a000be
:100c20004f0678004f05be004f04be0000000600ce
:100c3000f0ff2f00f1ff2700f9ff370081002000af
:100c4000618055000b003d000b00200061fe2f006d
:100c50000100e1001d003400828171006101640027
:100c60008904d1000884d3000000e800faff3a00ac
:100c70007100200061006400030070000200600049
:100c80000900320061044400e0844c000988a5009a
:100c9000050032008b05e8006808e10002003a0018
:100ca0008904d1000884d300f20f20000258e1002b
:100cb00005003d00c75ddd00f907b20089807500c1
:100cc00008007800000006000bf827008b00780071
:100cd00000000500889fbe008a9fbe00841f780028
:100ce000beff07004f00780011003300f0ff2f0017
:100cf000838f6c0006003b00040565000a00a70016
:100d00000800370009f0a600100020000800370096
:100d1000820f5400838f5c00030039001000200014
:100d200001003e000000200009f0a7000000ea00da
:100d30004f05be004f04be000000e00000000600aa
:100d4000c70ade00f107b200f50fb200080032005a
:100d5000e1cf4200020032000170a0002400050033
:100d6000810f7000010032000408050044000500f6
:100d7000810f700002003a00140005008502e900ae
:100d80000000400081c04800fcff3b000170a00053
:100d900024000500889fbe008a9fbe008c9fbe0075
:100da000820578000004be00e5ff07000800be00d1
:100db0006420e1000700390002003a00f1ff27003b
:100dc000f0ff2f000160a00012022000c29b8800eb
:100dd000550037006120e10003003a000b00a70036
:100de00001f823005000370001f0a10002002100ab
:100df00093642400d5fe07000800be0004003500ff
:100e0000b2fd2000930c2400b20007000004be00d5
:100e10000005eb000b00a6004f0dde0001f0a10065
:100e20000004be0032982f0023ea23000afe0700c8
:100e30000001eb0003f023000b00a70003f82300e0
:100e400065fe0700fafe07000000a7000a00a200e6
:100e500035fe07000b00e000030032000200200016
:100e600003f023005bfe070001f0a2000006be00b5
:100e70000200200093042400f7fd07000801be00d3
:100e800055fe0700809fbe000c00be0022a22a0073
:100e9000d3a72300f0fd07004f01be004efe070060
:100ea0000004be0001f0a10002002000039823000e
:100eb000a6fe07000800be00190035000001be00b4
:100ec000e5fd07000006be00b2c52900e36223006d
:100ed000e1fd070022222b00f3942b003efe0700c9
:100ee0000c01be00dcfd0700e273280083c0230074
:100ef00039fe07000c01be00d7fd070042aa2a00f8
:100f0000a3e22b0034fe07000c01be00d2fd070057
:100f10000801be00d0fd07000801be002efe07003c
:100f20000a00a70001f0a2004f06be004f05be0058
:100f30004f04be0000000600889fbe008a9fbe00ce
:100f40008c9fbe000206780001f0a7000cf0a00004
:100f50000004be007aff07000800be006420e10024
:100f60000700390002003a00f1ff2700f0ff2f00d0
:100f70000160a00012022000c29b880051003700cf
:100f800009f0a1000800be000200200003f82300c1
:100f90000eff0700f4ff3c000800be000200200026
:100fa0000398230069fe07000800be0030003500ea
:100fb0000200200003f0230004ff070005003c00ae
:100fc0000800be000801be00a3fd07000005be002a
:100fd0000e0037000c10a2000000200001f82300d2
:100fe0000801be00fbfd07000200200003f0230003
:100ff00099fd07000005be0058fe07000200200012
:1010000003002c0094fd07000004be000a00be008f
:10101000b2d02800130b2c00effd07000a01be0020
:101020008dfd0700020f2500330b2400eafd0700a9
:10103000809fbe000a00be005206220013f02b0063
:1010400085fd0700b2662100f3f62300e2fd0700ec
:101050000a01be0080fd07004f01be0095fe07009b
:101060000801be007cfd07000801be00dafd070094
:101070000c00a70007003700b2fd200093fc2300fe
:101080000c10a700d4fd07000cf0a70001f0a2008f
:101090000c0037000cf0a7000200370001f0a2009e
:1010a00004003700b2fd2000930424000c10a600b9
:1010b00003003700b2fd200093fc23000c10a700b2
:1010c000c5fd07004f06be004f05be004f04be0021
:1010d000000006000400200000003700889fbe00ca
:1010e0008a9fbe008c1f78004f26dd00bbfe0700e4
:1010f000c2fe33006120e100430032006250e10093
:1011000041003e003e0039006420e1003c00320016
:10111000058255000f003b000402e80038003a0049
:10112000800f5300818f5b00350034000800be0043
:1011300003f0a10001f0a60003f0a0000cf0a7004e
:10114000a5fd0700b6fe37000603430087834b006a
:101150000c4646000005530081855b000200330009
:101160000a03be000c00a0000402e900f6ff3b00e9
:10117000850578000602430087824b0004003a0090
:101180006000b80009f0a70001f0a000a4fe37003d
:101190000002520081825a000704e000040033007c
:1011a0000603430087834b008b05e900faff3700f5
:1011b000090578000604be000203be006011b800f5
:1011c0009efe0700e00f5200e08f5a000700350036
:1011d00002003c000c08a300040032000601be001f
:1011e00003f0a0000cf0a7007bfd07000a85680053
:1011f00001f0a1000af0a70001f0a00088fe37006e
:101200000800be0086fe3700100220000cf0a60089
:10121000c09b880086fe37000000fa000000eb004b
:10122000800888000111200091407800f0ccb300c4
:1012300000c0600010e1b7000000eb00300888003b
:10124000205c20006008880084c0a9008cc0a80031
:1012500011e1a8000080fa00000006000000fa007a
:1012600011e1a9000080fa00000006000800fa0061
:101270001007980021079800a09b8000000f7800bd
:101280000b0037001e007800b00090001e00900098
:10129000808f500003003a001100200031079800b1
:1012a0001f0037001e007800c0009000010f78007a
:1012b0001e00e000f3ff3a00a00020001afc070027
:1012c000000f78001e00e00002003a00100020002d
:1012d00067fc0700ae0090001e007800010878004f
:1012e0009e0078000000eb00900098009e007800bf
:1012f00010c0b300c04098001e0078009e0090000f
:1013000031009800a19b80001e00780041009800e9
:101310001e007800a09b8800110020003107980073
:101320003e0090000080fa00000006000800fa006d
:10133000200798000000eb0010079800a09b800099
:10134000000f78001a0037001e007800b0009000ef
:101350002e009000808f500010003a001e00900078
:101360000000e000050032001e007800c000900080
:101370001e00900041009800030037001e00780016
:1013800040009000a09b88001e0078004afc0700e7
:101390001100200031079800090037001e00780076
:1013a000100798001e007800c0009000010f780020
:1013b0001e00e000e4ff3a00200020003007980003
:1013c0003e0090000080fa00000006000800fa00cd
:1013d0001007980021079800a09b8000000f78005c
:1013e0000e0037001e007800b00090001e00900034
:1013f000808f500006003a00ae0090001e0078007a
:10140000010878001100200031079800070037001c
:101410001e007800c0009000010f78001e00e00060
:10142000f0ff3a0020002000300798003e009000b6
:101430000080fa00000006000600fa00100798007d
:10144000a09b8000000f78000e0037001e0078007f
:10145000b00090001e009000808f500006003a00ff
:101460009e0078000000eb00900098001100200022
:1014700021079800070037001e007800c000900088
:10148000010f78001e00e000f0ff3a00200020006d
:10149000200798002e0090000080fa00000006004f
:1014a0000600fa0010079800a09b8000000f78004b
:1014b0000e0037001e007800b00090001e00900063
:1014c000808f500006003a009e0078000040eb003c
:1014d000c040980011002000210798000700370045
:1014e0001e007800c0009000010f78001e00e00090
:1014f000f0ff3a0020002000200798002e00900006
:101500000080fa00000006000600fa0010079800ac
:10151000a09b8000000f78000e0037001e007800ae
:10152000b00090001e009000808f500006003a002e
:101530009e00780010c0b300c04098001100200049
:1015400021079800070037001e007800c0009000b7
:10155000010f78001e00e000f0ff3a00200020009c
:10156000200798002e0090000080fa00000006007e
:101570003600f800809fbe00829fbe00849fbe00a0
:10158000869fbe003400f80000c0b300a0018800b0
:101590000200fa00a09b8000000f780084c0a90020
:1015a0001e0037001e00780040409000e14f5000c0
:1015b00017003a001e007800100078000000e000dc
:1015c000130032001e007800100090008000e80038
:1015d0001e007800110098001e0078001000900096
:1015e000800078001e007800100078000000e900fc
:1015f000808f5000060036001e00780030009000fa
:10160000000001009e0078000000eb0090009800b0
:101610001e007800c0009000010f78001e00e0005e
:10162000e0ff3a000080fa003400f9004f03be00ea
:101630004f02be004f01be004f00be003600f90051
:10164000004006000000fa00c4c2a900c4e2a900dc
:10165000c522a900c582a900c542a900c5a2a9004a
:10166000c5c2a900c5e2a900c0c2a900c0e2a90084
:10167000c122a900c182a900c142a900c1a2a9003a
:10168000c1c2a900c1e2a900d022a900cc22a900b0
:10169000d042a900cc42a900e2e2a900e302a900dd
:1016a000e802a900e822a900dee2a900df02a90001
:1016b000e402a900e422a900e202a900de02a900d6
:1016c000d602a900d622a900d642a900d662a90056
:1016d000d682a900d6a2a900d6c2a900d6e2a90046
:1016e000d202a900d222a900d242a900d262a90046
:1016f000d282a900d2a2a900d2c2a900d2e2a90036
:10170000d1a2a900cda2a900e842a900e862a900df
:10171000e442a900e462a900de22a800dec2a8001b
:10172000e4c2a800e4e2a800e502a800e522a800bf
:10173000d302a800d322a800d342a800d362a800f5
:10174000d382a800d3a2a800d3c2a800d3e2a800e5
:101750000080fa00000006000400fa00209b8000d0
:101760000000e0001f003200c19a800080da2f00e4
:10177000808f50001b003500c19a8000802520001a
:10178000808f500017003c00d602a900d622a90085
:10179000d642a900d662a9000000eb00209b880079
:1017a000c09a800000017800120798001e01900086
:1017b0000200e00003003d001e0190000201ea006b
:1017c00012079800007122001e019000110009000c
:1017d0000200d800ef005000c0ba2000fbfe070056
:1017e0004d003700c09a80000000e0000c0034007b
:1017f000009b80000000e800009b8800e09a8000c9
:101800000000e900e09a8800e09a80000000e00013
:101810000e003d0030002000e09a88000b003700e9
:10182000009b80000000e900009b8800e09a800097
:101830000000e800e09a8800e09a8000e30f500082
:10184000020034000000eb00e09a8800e09a80007b
:10185000000f78001e017800e10f510013003200e4
:101860001e007800e10f500004003c001e017800cb
:101870000200e000080032001a0037001e00780065
:10188000e20f50000e0032001e017800e30f5100fd
:101890001000320013003700d602a900d622a8009b
:1018a000d642a900d662a8000e003700d602a900d1
:1018b000d622a800d642a800d662a90009003700a7
:1018c000d602a800d622a900d642a800d662a90056
:1018d00004003700d602a800d622a900d642a900eb
:1018e000d662a800c19a800080da2f00808f500055
:1018f00009003500c19a800080252000808f5000ab
:1019000005003c0010002000209b8800f100200012
:10191000c0ba2000adfe07000080fa0000000600fb
:101920000400fa00309b80000000e0001f0032003d
:10193000d19a800080da2f00808f50001b00350084
:10194000d19a800080252000808f500017003c0035
:10195000d682a900d6a2a900d6c2a900d6e2a900c3
:101960000000eb00309b8800d09a800000017800d6
:10197000120798001e0190000200e00003003d00e5
:101980001e0190000201ea00120798000071220077
:101990001e019000110009000200d800ef00500065
:1019a00000c9200089fe07004d003700d09a800052
:1019b0000000e0000c003d00109b80000000e900ea
:1019c000109b8800f09a80000000e900f09a8800df
:1019d000f09a80000000e0000e003d003000200082
:1019e000f09a88000b003700109b80000000e80090
:1019f000109b8800f09a80000000e800f09a8800b0
:101a0000f09a8000e30f5000020034000000eb0069
:101a1000f09a8800f09a8000000f78001e0178008c
:101a2000e10f5100130032001e007800e10f50005a
:101a300004003c001e0178000200e00008003200b3
:101a40001a0037001e007800e20f50000e0032002e
:101a50001e017800e30f5100100032001300370020
:101a6000d682a900d6a2a800d6c2a900d6e2a800b4
:101a70000e003700d682a900d6a2a800d6c2a800c0
:101a8000d6e2a90009003700d682a800d6a2a90094
:101a9000d6c2a800d6e2a90004003700d682a8006a
:101aa000d6a2a900d6c2a900d6e2a800d19a800089
:101ab00080da2f00808f500009003500d19a800015
:101ac00080252000808f500005003c001000200081
:101ad000309b8800f100200000c920003bfe070079
:101ae0000080fa00000006000000fa008000eb0011
:101af000c0ba2000ddfd07008000eb0000c9200017
:101b0000dafd07000080fa00000006000200fa007b
:101b1000000f78001e00e0000a003a000000eb0011
:101b2000c09a88008000eb00c0ba200027fe0700a2
:101b3000d602a900d622a900d642a900d662a900e1
:101b40002d00370080c12f009e0f10000a003d00bd
:101b500080c12f00c09a8800c29a8000008f2d009b
:101b6000110009000200d80080007800c0ba2000ef
:101b700016fe070020003700803e20009e0f100058
:101b80000a003400803e2000c09a8800c29a80007b
:101b900000712200110009000200d80080007800c6
:101ba000c0ba200009fe0700130037001e007800ad
:101bb000c09a88001e00e00008003d00008f2d0044
:101bc0001e017800110009000200d8008000780092
:101bd000c0ba2000fdfd0700070037000071220099
:101be0001e017800110009000200d8008000780072
:101bf000c0ba2000f5fd07000080fa0000000600d2
:101c00000200fa00000f78001e00e0000a003a000f
:101c10000000eb00d09a88008000eb0000c9200093
:101c2000eafd0700d682a900d6a2a900d6c2a90063
:101c3000d6e2a9002d00370080c12f009e0f1000b2
:101c40000a003d0080c12f00d09a8800d29a8000ff
:101c5000008f2d00110009000200d80080007800dc
:101c600000c92000d9fd070020003700803e200079
:101c70009e0f10000a003400803e2000d09a880099
:101c8000d29a800000712200110009000200d800e1
:101c90008000780000c92000ccfd07001300370049
:101ca0001e007800d09a88001e00e00008003d0069
:101cb000008f2d001e017800110009000200d800dd
:101cc0008000780000c92000c0fd07000700370031
:101cd000007122001e017800110009000200d800e6
:101ce0008000780000c92000b8fd07000080fa00dd
:101cf000000006000800fa00000f780011079800a5
:101d00001e007800300798003e0190000200e000bd
:101d100003003d003e0090000000ea0030079800fc
:101d20001e019000220798002e0090000000e000a5
:101d300003003d002e0190000201ea0022079800f6
:101d40003e0090002e01900082004000803e200066
:101d5000808f500006003c001e0090001e00100006
:101d60006aff07001e0090001e004000a4ff07004d
:101d70000080fa00000006000000fa00009b8000ce
:101d80000080fa00000006000200fa00000f780050
:101d90001e007800009b88000080fa00000006000a
:101da0000000fa00109b80000080fa00000006008e
:101db0000200fa00000f78001e007800109b8800d7
:101dc0000080fa00000006000400fa0010079800e6
:101dd0000d003700000000000000eb00000f78004d
:101de00003003700000000000060fe001e0fe80046
:101df000e00f20009e0f1000faff36001e0090003a
:101e00000000e900100798001e0090000000e000ac
:101e1000f0ff3a000080fa00000006000000fa001f
:101e20001602a900612120009140780090cfb300f4
:101e300000c0600016e2b70016a2a90070002000e2
:101e4000a0108800a0108000f010880019e2a800ff
:101e500018e2a90018c2a9008f00a80017e2a80084
:101e60001942a8000080fa00000006003600f800c1
:101e7000809fbe00829fbe00849fbe00869fbe00e2
:101e80000000fa008f00a900e010800026f2b700e1
:101e9000a196800062222100124178007022210068
:101ea00000804000024878000100e800a096880009
:101eb000612221009140780070c4b30080cf5000af
:101ec0000d003a0090968000e10f50000a003a00a1
:101ed000a09680000000e900b0968800b0968000cf
:101ee000800078007022210000804000609488000b
:101ef0000000eb009096880061222100914078005c
:101f000040c2b30080cf500015003a00a096800078
:101f100080007800702221000000e900008040006d
:101f20007094880070948000800078006094800035
:101f300000805000e80f500009003a00a602070098
:101f40001000200090968800a196800010052000c7
:101f5000808f5000020034000000eb00a096880043
:101f6000a1968000e0052000808f50000200340020
:101f70000000eb00a09688008700a9008f00a80051
:101f80000080fa004f03be004f02be004f01be00aa
:101f90004f00be003600f900004006008a00fa003b
:101fa000889fbe00602f9800a099290091e123002e
:101fb000402f9800512f9800f0282c0051c7230083
:101fc000202f9800312f980000002000011a2400d3
:101fd000002f9800112f9800d0cc240051302400fd
:101fe000602798007127980000002000612e2400cf
:101ff00040279800512798006000b80020279800db
:10200000312798006000b800002798001127980039
:102010006000b800601f9800711f98006000b80051
:10202000401f9800511f98006000b800201f9800c2
:10203000311f98006000b800001f9800111f980021
:102040006000b80060179800711798006000b80031
:1020500040179800511798006000b80020179800aa
:10206000311798006000b800001798001117980009
:10207000102d2200b1d52300600f9800710f980039
:1020800050152c0081d22300400f9800510f98006a
:102090006000b800200f9800310f9800f026210052
:1020a00031a02300000f9800110f980000002000bd
:1020b000a14f240060079800710798000000eb0012
:1020c000500798000000eb00400798000000eb006c
:1020d000300798000000eb00200798000000eb009c
:1020e000100798000000eb00000f7800c2092500df
:1020f000839023004e209000de20900056f90700c8
:102100004027980051279800907a80004300dd0016
:10211000e6004000600a21000080400010047800c2
:102120006140b90080f90700308798004187980026
:102130000800e00007003d000200200003782400b2
:102140003e809000ce809000a3f907003087980071
:10215000418798003e809000ce8090002017980024
:10216000311798002e119000be1190000000200041
:10217000413b240097f9070002002000432b240074
:1021800094f9070020179800311798006011b800e3
:102190002e109000be109000ecf907000000e00047
:1021a000010035000700370002002000433b2400f7
:1021b0002e109000be10900087f90700201798009d
:1021c000311798000000eb00300798003601370007
:1021d000907a8000eb0f500003003a0010002000be
:1021e00020079800030037003e00900064020700bb
:1021f000200798003e0090004300dd008080e8004a
:10220000600a210000804000100478006140b9009d
:1022100045f9070010879800218798000800e00022
:1022200007003d0002002000037824001e8090007b
:10223000ae80900068f90700108798002187980009
:102240006011b8001e809000ae809000c1f90700b8
:102250000000e00001003a000e0137003e0090004f
:102260004300dd00e4004000600a210000804000df
:10227000100478006140b9002bf90700703f980006
:10228000018798000800e00007003d0002002000e0
:10229000037824007e3890008e8090004ef907006d
:1022a000703f9800018798006011b8007e38900058
:1022b0008e809000a7f907000000e00001003a00be
:1022c000f4003700917a80003e009000810f5000aa
:1022d000f00032002e0090000000e000ed0032001f
:1022e0003e0090004300dd008080e800600a21008d
:1022f0000080400010017800907a80004300dd00eb
:102300008080e800600a2100008040001000780012
:1023100000005100500798003e0090004300dd008f
:10232000e4004000600a21000080400010017800b5
:10233000907a80004300dd00e4004000600a210044
:102340000080400010007800000051004007980015
:102350005e009000cf80de00f3f80700201f980099
:10236000311f98004e009000cf80de00eef807008d
:10237000001f9800111f98002e199000be199000a0
:102380002e189000be189000b3f807000004be009d
:102390000e1990009e1990000e1890009e18900043
:1023a000adf807000001be000800be000af90700f2
:1023b0006af907009ef9070010079800b2fd200097
:1023c000930424002e109000be109000a2f8070085
:1023d0000200200043332400b6f90700f7f9070094
:1023e0002027980031279800b2fd20009304240094
:1023f0002e109000be10900097f8070002002000f9
:1024000043332400abf90700eef9070000279800da
:102410001127980002002000432b24002e1090006a
:10242000be109000ecf80700b2fd200093042400d9
:1024300089f8070002002000433324009df90700bb
:10244000def907006017980071179800020020005d
:10245000432b24002e109000be109000def80700e1
:10246000b2fd2000930424007bf807000200200046
:10247000433324008ff90700d2f907004017980072
:10248000511798004e299000de2990002e289000c8
:10249000be28900087f90700503f9800613f9800e0
:1024a0001e009000cf80de009ff80700303f9800ac
:1024b000413f98001e0090000000e00007003d0032
:1024c00002002000037824003e389000ce389000af
:1024d000c1f80700303f9800413f98000e09900076
:1024e0009e0990003e389000ce3890005af80700c0
:1024f0000001be004e289000de289000b5f80700cd
:102500000001be005e389000ee38900052f80700df
:102510002e199000be1990004ff80700103f980048
:10252000213f98001e009000cf80de007ef807005b
:1025300070379800013f98001e0090000000e000f6
:1025400007003d0002002000037824007e30900048
:102550008e389000a0f8070070379800013f98006f
:102560007e3190008e3990001e389000ae38900079
:1025700050f907000001be006e189000fe18900090
:1025800094f80700601f9800711f98004e29900072
:10259000de2990002e289000be28900045f9070003
:1025a00050379800613798001e009000cf80de0001
:1025b0005df8070030379800413798001e00900002
:1025c0000000e00007003d00020020000378240026
:1025d0003e309000ce3090007ff8070030379800f2
:1025e000413798000e0990009e0990003e309000ff
:1025f000ce30900018f807000001be004e28900071
:10260000de28900073f807000001be005e309000e5
:10261000ee30900010f807000e1990009e199000ff
:102620000df8070010379800213798001e00900021
:10263000cf80de003cf80700702f9800013798002b
:102640001e0090000000e00007003d000200200096
:10265000037824007e2890008e3090005ef80700fa
:10266000702f9800013798007e2990008e319000dd
:102670001e309000ae3090000ef907000001be0041
:102680004e189000de18900052f80700401f980086
:10269000511f98000000eb00200798003e009000ba
:1026a0000000e800300798003e009000ef0f500057
:1026b000c7fe34002e219000be2190006e189000bd
:1026c000fe189000e4f707000004be000e21900001
:1026d0009e2190004e189000de189000def7070053
:1026e0000001be000800be003bf807000e29900064
:1026f0009e299000d8f7070000179800111798003e
:102700006e119000fe1190006e189000fe1890005f
:10271000d1f707000004be004e119000de119000ba
:102720004e189000de189000cbf707000001be00a5
:102730000800be0028f807006e219000fe219000de
:10274000c5f70700200f9800310f98000e11900078
:102750009e1190004e209000de2090001ef8070091
:102760000004be002e099000be0990006e08900083
:10277000fe089000b8f707000200200003002400c4
:10278000ccf807000001be000800be0012f80700e8
:1027900002002000a3472400aff7070082eb2100ce
:1027a00053e02300c3f80700a1f807002097880032
:1027b0000e1190009e1190004e209000de2090009f
:1027c00005f807000004be002e099000be09900025
:1027d0006e089000fe0890009ff70700020020009e
:1027e00003002c00b3f807000001be000800be0083
:1027f000f9f7070002002000a347240096f707001e
:1028000082eb210053e02300aaf8070088f80700b4
:10281000309788002197800000192000808f500099
:1028200003003400001920002097880006003700bc
:102830002197800000e72f00808f500002003d00ac
:1028400000e72f00209788003197800000192000b2
:10285000808f50000300340000192000309788005a
:10286000060037003197800000e72f00808f50006e
:1028700002003d0000e72f00309788000000eb00c9
:1028800030079800150037003e009000c300dd00bf
:10289000c00a2100808040000000eb008008780022
:1028a0003e009000c300dd00800a210080804000cf
:1028b0000000eb00800878003e009000c300dd00bf
:1028c000a00a2100808040000000eb008008780012
:1028d0003e0090000000e800300798003e009000a5
:1028e000ef0f5000e8ff34006000b800601f980050
:1028f000711f98006000b800401f9800511f980099
:102900004f04be000080fa00000006000600fa0036
:1029100010079800210798006011b8001e00900071
:10292000ae00900009f807000000e000010035004b
:10293000140037000000eb0013fd0700b2fd20007b
:10294000930c2c001e009000ae00900059f8070078
:1029500002002800234a24003ff7070034f807004c
:10296000000f7800803e200068fc070080c12f0027
:10297000a3fc070000fd07009e0f5000fdff35007f
:10298000130037000000eb0009fd07001e00900057
:10299000ae009000b2fd2000930c240045f8070023
:1029a00002002800234a24002bf7070020f8070024
:1029b000000f780080c12f0054fc0700803e2000eb
:1029c0008ffc0700f6fc07009e0f5000fdff35004e
:1029d0000080fa00000006000800fa000040eb004a
:1029e0002047980060948000200798000000eb00ca
:1029f000000f78002e009000904078000040eb001f
:102a00006047980070c4b30080cf500002003a00c5
:102a100010c0b300604798002e0090000000e8004e
:102a2000200798006e4090000004e0004e00320045
:102a30002e00900010407800204798002e00900053
:102a40000000e800200798002e4090000004e000fd
:102a5000450035002e409000ef4f500042003c00f2
:102a60002e4090008000fb002e0090001041780066
:102a7000c308dd00800a2100008040000248780081
:102a80002e0090000000e800200798002e409000e3
:102a90008000fb002e00900010417800c308dd008c
:102aa000900a210000804000024878002e0090002b
:102ab0000000e800200798002e4090008000fb00f6
:102ac0002e00900010417800c308dd00a00a21000c
:102ad00000804000024878002e0090000000e800ce
:102ae000200798002e4090008000fb002e009000f0
:102af00010417800c308dd00b00a210000804000ca
:102b0000024878002e0090000000e800200798009e
:102b10002e4090008000fb002e00900010417800b5
:102b2000c308dd00c00a2100008040000248780090
:102b30002e0090000000e800200798002e40900032
:102b40008000fb002e00900010417800c308dd00db
:102b5000d00a210000804000024878002e0090003a
:102b60000000e800200798000080fa00000006003e
:102b70000000fa008720a9000080fa00004006004b
:102b80000a00fa00400798000000eb0030079800a8
:102b90000000eb00200798000000eb0010079800f1
:102ba0000000eb00000f7800907a8000300798005a
:102bb000907a8000e50f500003003a00907a800080
:102bc0000000e90030079800907a8000ea0f50007a
:102bd00003003a00907a80006500500030079800aa
:102be0000000eb0020079800110037003e00900025
:102bf0002e0190006300b9000200400080004000f8
:102c0000a02e210000804000900078004e0090002f
:102c1000008f50001e00e00002003a00100020006b
:102c2000100798002e0090000000e8002007980090
:102c30002e009000e20f5000ecff34001e009000c8
:102c40000080fa00000006000400fa00889fbe0021
:102c5000609b8000719b800052152c0083d2230062
:102c60007df6070002002000a347240091f707002b
:102c7000e08e8800f18e880010002000808d880092
:102c800010002000908d8800401c2100000f78006b
:102c90000000eb0010079800090037001e009000ac
:102ca000c200dd00001d2100008140006000b8006e
:102cb0000089be001e0090000000e8001007980088
:102cc0001e009000e20f5000f4ff3400808d800061
:102cd0000000e00098003400908d80000000e000cb
:102ce00095003400708d80000000e0000d003a0077
:102cf000401b21001000be00c21b21000089be0045
:102d0000401b2100b000900020009000c21b210059
:102d1000200198003101980010002000708d88007b
:102d20008500370014fc0700cf80de007ef6070028
:102d3000421b21000089be0019fc0700cf80de0085
:102d400079f60700421b210020019800310198000c
:102d5000401b21001002be00c01b21001001be005c
:102d60000400be009bf6070031f70700608d880065
:102d7000401b210020029000b0029000c01b2100e7
:102d800020019000b00190000400be0091f6070001
:102d900027f70700508d8800508d8000cf80de001f
:102da00061f6070001f0a10002002000a33f24000b
:102db000e6f607000000e000010035000e003700d5
:102dc000608d8000cf80de0057f6070001f0a10083
:102dd00002002000a33f2400dcf607000000e00012
:102de0000100350004003700401b21001000be0028
:102df000c21b21000089be00401b2100b0009000d2
:102e000020009000c21b2100200198003101980091
:102e1000518d8000608d800000804000cf80de00fa
:102e200041f60700e28e8000f38e80000af607006c
:102e300002002000030024001ef707000004be006b
:102e4000608e8000718e80005cf707000001be007c
:102e50000800be0000f60700808e8800918e880072
:102e6000518d8000608d800000804000cf80de00aa
:102e70002df60700e28e8000f38e8000f6f5070045
:102e800002002000030024000af707000004be002f
:102e9000608e8000718e80004af707000001be003e
:102ea0000800be00ecf50700a08e8800b18e8800f7
:102eb000518d8000608d800000805000cf80de004a
:102ec00019f60700e28e8000f38e8000e2f507001d
:102ed000429b8000539b8000f6f60700c08e88005e
:102ee000d18e8800208e8000318e8000828e8000fe
:102ef000938e800038f60700208e8800318e88007f
:102f0000408e8000518e8000a28e8000b38e8000a3
:102f100031f60700408e8800518e8800608e800058
:102f2000718e8000c28e8000d38e80002af607004a
:102f3000608e8800718e88001e0078004f04be00ed
:102f40000080fa00000006000200fa003eff0700c1
:102f5000000f78001e80e800104078008080fb00a1
:102f6000400b20000088b900cf80de00eef507009e
:102f7000b2fd200093042400cef60700308d8800b7
:102f8000418d880007003700308d8000418d800022
:102f900002002000433324000ef60700308d880025
:102fa000418d8800308d8000418d8000020020001e
:102fb0004333240005f707000000e000f2ff3c0067
:102fc00007003700308d8000418d80000200200016
:102fd0004333240000f60700308d8800418d8800bf
:102fe000308d8000418d80000200200043332c0092
:102ff00056f607000000e000f2ff35000080fa00fe
:10300000000006000400fa000000eb001007980022
:103010000000eb00000f78008af90700b2fa070001
:103020007efb070034000700907a88000040eb0028
:10303000b203070078f807000000eb00b3fa0700be
:103040000000eb00eefa0700803e20005efb070068
:103050000000eb00000f7800110037001e00780020
:103060004300dd008080e800600a2100008040000d
:10307000100078000000e000080032001e00900000
:103080000000e80010079800907a80009e0f100062
:1030900002003a0010002000b09b88001e0fe800dc
:1030a000f00020009e0f1000ecff34001e00900086
:1030b000e60f50000b003400b09b8000e10f500081
:1030c00008003a001e009000b4fb07002097800023
:1030d0008efa070030978000c9fa0700800c2000a4
:1030e00039fb07000000eb00100798000000eb0020
:1030f000b09b8800d6ff37000000fa00e6c2bf0090
:103100000080fb004600de00614060000081fb00a3
:10311000e7c2bf000080fb000000d10061406000fa
:103120000080fb000000400080007800e7c2bf0084
:10313000614060000080fb00008040000000400013
:1031400080007800e6c2bf000080fb004700de0080
:103150000080fb00008040000000400000004100b3
:103160000080fa00000006000200fa000000eb00f8
:10317000000f780000003700907a80004300dd00e7
:103180008080e800600a2100008040001000780084
:103190000000e000f8ff3200907a80004300dd007c
:1031a000e4004000600a2100008040001000780028
:1031b0000000e000f0ff3200007d200002fb07006d
:1031c0000080fa00000006002a00fa00889fbe0076
:1031d000100f9800210f9800320f9800430f9800ad
:1031e000540f9800650f9800760f98000717980005
:1031f00060092100000f7800ee0890002e08900072
:10320000008450006140b90047f50700101798008e
:10321000211798000800e00007003d000200200090
:10322000037824001e109000ae1090006af507008d
:1032300010179800211798001e109000ae109000f3
:1032400070079800010f9800fe0890003e0890005b
:10325000008450006140b90033f507003017980032
:10326000411798000800e00007003d000200200020
:10327000037824003e109000ce10900056f5070011
:1032800030179800411798003e109000ce10900023
:1032900050079800610798007e0190008e09900009
:1032a0007e0090008e089000ebf407000004be0042
:1032b0005e019000ee0190005e009000ee00900034
:1032c000e5f407000001be000800be0042f507005b
:1032d000a2f5070010079800210798007e009000d3
:1032e0008e089000b0848800c18488005e00900041
:1032f000ee009000d0848800e18488001e009000d9
:10330000ae009000f0848800018588001e007800df
:103310004f04be000080fa00000006000200fa0020
:10332000907a8000927a8000c300dd0040f5200092
:1033300080814000c310dd00001e2100008040009d
:103340003302be002303be005001be004000be0099
:103350009dff0700000f78001e0078001000be00df
:10336000a07f8800b17f88009e00780064804000c4
:103370001000be00c07f8800d17f88000080fa0066
:10338000000006001000fa00881f78000000eb0023
:10339000600798007e0037006e009000927a8000ef
:1033a000c300dd00001e210080814000c310dd004d
:1033b000001e2100008040003302be002303be0037
:1033c0005001be004000be007fff0700a0848800bf
:1033d000a0848000680040001001be0042079800f1
:1033e00053079800d2cc2c00c3d423004e00900089
:1033f000de00900055f507000000e00001003500f8
:1034000004003700d0cc2c00c1d423004007980022
:10341000510798008041eb00634f9800a299290062
:1034200093e923004e009000de00900047f507006e
:103430000000e000010035000200370010c0b300ba
:10344000604f98006e4890000004a2000004e00065
:103450003a003a00917a80006e009000810f50008f
:10346000360032006e0490004e019000de019000a4
:103470000000200001f823008ef5070052552500ba
:1034800053052400d3f407000001be00c440dd0052
:1034900000022100008040000288be006e049000ff
:1034a0006e0090004400dd00ec004000400121006f
:1034b000008040001002be00a08480001001be0009
:1034c0000400be0064f407004e019000de0190008d
:1034d00078f507000001be00c440dd004001210076
:1034e000008040000288be006e0490006e009000d4
:1034f0004400dd00ec00400040012100008040005d
:103500001002be00a0848000640040001001be00d4
:103510000400be0050f407004e019000de01900050
:1035200064f507000001be00c440dd0080012100f9
:10353000008040000288be00120037006e0090003c
:10354000c400dd0000022100008140006000b800de
:103550000089be006e009000c400dd004001210023
:10356000008140006000b8000089be006e0090003d
:10357000c400dd0080012100008140006000b8002f
:103580000089be006e0090000000e800600798000f
:103590006e009000e20f50007fff3400a08080009a
:1035a000b180800022818000338180008af407008e
:1035b000a2818000b381800087f40700a07e88008c
:1035c000b17e8800c0808000d18080004281800070
:1035d0005381800080f40700c2818000d381800085
:1035e0007df40700c07e8800d17e88004f047800fb
:1035f0000080fa00000006000200fa00889fbe006a
:10360000a07f8000b17f8000a299290093f1230060
:1036100011f407000004be00a07e8000b17e80008f
:10362000d2cc2c00c3e42b000bf407000001be0039
:103630000800be0068f40700208088003180880000
:10364000c07f8000d17f8000a299290093f12300e0
:1036500001f407000004be00c07e8000d17e80001f
:10366000d2cc2c00c3e42b00fbf307000001be000a
:103670000800be0058f40700408088005180880090
:103680002080800031808000228080003380800094
:10369000f1f307000004be004080800051808000ec
:1036a0004280800053808000ebf307000001be00e1
:1036b0000800be0048f40700a8f4070080808800d6
:1036c00091808800808080009180800072712b0042
:1036d000138d23009df407000000e0000100350079
:1036e000040037006000b8006080880071808800a6
:1036f0000800370040808000518080008280800078
:1037000093808000ebf4070032f5070060808800aa
:103710007180880020808000318080000041eb00b3
:10372000124798006011b80088f407000000e0001c
:10373000010035000200370010c0b30010479800a8
:103740001e4090000004a2000004e00017003a00b0
:1037500040808000518080000041eb00024f7800e3
:103760006011b80019f507000000e00001003c00fe
:103770000200370010c0b300004f78001e407800f0
:103780000004a2000004e00008003a00628080000b
:1037900073808000b0fd2000910424000df4070028
:1037a00060808800718088001500370020808000cc
:1037b000318080006011b80064f407000000e00070
:1037c000010035000e0037004080800051808000ed
:1037d0006011b8005df407000000e0000100350052
:1037e000070037006280800073808000b0fd2000f9
:1037f00091042c00f7f30700608088007180880036
:10380000208080003180800002002000a34f24002f
:1038100091f307002080880031808800408080007c
:103820005180800002002000a34f24008af307008b
:1038300040808800518088008080800091808000d6
:1038400002002000a34f240083f30700808088003b
:10385000918088004f04be000080fa00000006003e
:103860001200fa00881f780080808000918080001c
:103870006ff407003007980060808000718080003e
:1038800070079800010f9800907a80004300dd00d7
:10389000e6004000001e2100008040001004780077
:1038a0006140b900a0f30700500798006107980035
:1038b0000800e00007003d0002002000037824001b
:1038c0005e009000ee009000c3f3070050079800e0
:1038d000610798005e019000ee0190007e0090006c
:1038e0008e089000bbf30700008fbe00b2fd2000e1
:1038f000930424001e00be00b4f407000000e000a2
:1039000001003c0006003700b2fd2000930c2400ab
:103910001e00be00aff30700008fbe000c00370092
:10392000b2fd200093042c001e00be0007f4070027
:103930000000e0000100350005003700b2fd200066
:10394000930c24001e00be00a3f30700008fbe00ee
:1039500002002000834424001e00be003ef3070046
:1039600033f40700200798003e009000fe0f50003f
:1039700003003400401f2000300798000500370086
:103980003e009000fe0f400002003d00c0e02f000e
:1039900030079800ae009000401f2000808f50003c
:1039a00003003400401f2000200798000600370065
:1039b000ae00900080da2f00808f500002003d00a2
:1039c000c0e02f0020079800ae009000410798004b
:1039d0004e0090000000e00003003d00ce0090008b
:1039e0008100ea00410798004e009000ea0f500065
:1039f000020034000000eb0030079800ae00900099
:103a00003e009000bbf807004f0478000080fa00e9
:103a1000000006000600fa00889fbe008a9fbe00d4
:103a20000000eb00909888004c00370090988000d0
:103a3000413121004200dd00010140006000b8007a
:103a40000089be000000eb00809888001b00370052
:103a50009b98800090988000413121004200dd0059
:103a6000010040001004be00909880008198800002
:103a70004300dd000100400080004000202b2100b9
:103a8000008040001005780080988000b503070092
:103a900000d0b900cf80de000801400089814800d5
:103aa000413121004258dd00010040000288be0083
:103ab000809880000000e80080988800809880004e
:103ac000e70f5000e2ff340090988000000f78006c
:103ad00090988000413121004200dd00010040004b
:103ae0001000be0010079800210798001e019000ea
:103af000ae019000e00f5100e08f590006003d003c
:103b00001e009000ae00900063004000e08048007e
:103b100010079800210798001e019000ae01900048
:103b20004e1add004210de0000007200c298de0076
:103b3000e22e2000000141001e0078001e007800e7
:103b400080004000c0312100008040000208780061
:103b5000909880000000e80090988800909880007d
:103b6000e10f5000b1ff3400f198800010032000f5
:103b7000808f500012003c00f1988000e0fc2f0084
:103b8000808f50000e003400e19880001003200068
:103b9000808f50000a003c00e1988000e0fc2f007c
:103ba000808f500006003400f09880007400b90047
:103bb000f0988800e09880007400b900e0988800d0
:103bc000f1988000803e2000808f50000300340078
:103bd000803e2000f098880006003700f1988000b1
:103be00080c12f00808f500002003d0080c12f0057
:103bf000f0988800e1988000803e2000808f50007f
:103c000003003400803e2000e09888000600370062
:103c1000e198800080c12f00808f500002003d009d
:103c200080c12f00e0988800f0988000b7f7070067
:103c3000e0988000f2f707004f05be004f04be0079
:103c40000080fa00000006001000fa00889fbe0005
:103c50008a9fbe0060079800710798004006200008
:103c600050079800d0cc2c00c1d423003007980016
:103c7000410798003000200020079800de009000e7
:103c80006e00900000805000100798008094800023
:103c9000cf80de00a4f207000005be001e009000e9
:103ca000cf80de00a0f207003e019000ce01900020
:103cb00069f207000004be002e009000cf80de00f5
:103cc00099f207000001be000800be0079f307006a
:103cd0000001be000a00be00bff2070054f3070057
:103ce00080948800819480001e00900080804000b5
:103cf0007e0090000088b900000f7800703e200020
:103d00009e0f100011003400703e20007e019000d4
:103d1000110009000200d800800078001e00900009
:103d2000008050008094880081948000c0032000af
:103d3000808f500002003400c0032000809488006f
:103d4000703e2000000f78001200370080c12f0065
:103d50009e0f10000f003c0090c12f007e019000cc
:103d6000110009000200d800800078001e009000b9
:103d7000008040008094880080948000ea0f40001a
:103d800002003d0060ff2f008094880090c12f004a
:103d9000000f78001e0078004f05be004f04be00e3
:103da0000080fa00000006000a00fa0030079800c0
:103db000410798000000eb00200798000000eb008e
:103dc00010079800ae0090003e009000008f500059
:103dd0009e0078004e0090000088b90010079800ff
:103de0009e009000703e2000808f50000300340041
:103df000703e200010079800060037009e009000db
:103e000080c12f00808f500002003c0090c12f0025
:103e1000100798001e0090000080fa0000000600c5
:103e20000400fa00889fbe0070002000cd02070049
:103e3000000478000000eb00ca0207000000440004
:103e400022002000110009000200d80061002000bb
:103e50007dff0700100798000000eb00c10207007b
:103e60000004780010002000be0207008004440017
:103e700070002000bb0207000004780060002000f2
:103e8000b8020700000044000080540041002000f8
:103e9000c5ff0700000f78001e0090001e005000b4
:103ea0001af707001e0090001e00400054f707009c
:103eb0004f04be000080fa00000006000000fa0077
:103ec000e0f5070008f707000040eb000b000700d3
:103ed00026020700a128200000f12100e3f40700da
:103ee000cdf40700ffff37000000fa00c9fe07000d
:103ef000c9f407000080fa00000006000200fa0082
:103f0000004f780010c0b3009e4f100003003a002d
:103f100010c0b30002e8b700020037000040eb0019
:103f200002e8b7000000eb00001588000000eb007d
:103f3000101588000000eb00201588000000eb0041
:103f400030158800a802a800a822a800a842a9004d
:103f5000a862a900a882a900a8a2a900a8c2a900d5
:103f6000a8e2a900a902a900a922a900a942a900c2
:103f7000a962a900a982a900a9a2a900a9c2a900b1
:103f8000a9e2a900aa02a900aa22a900aa42a8009f
:103f9000aa62a800aa82a800aaa2a900aac2a9008f
:103fa000aae2a900ab02a900ab22a900ab42a9007a
:103fb000ab62a900ab82a900aba2a900abc2a90069
:103fc000abe2a900112a200091407800c0cfb300d5
:103fd00000c06000a1e2b700a042a800012a2000b2
:103fe0009140780000ceb30000c07000a0e2b7009e
:103ff000212a20009140780030ccb30000c060003e
:104000000034a000a2e2b700a342a800512a200079
:104010009140780000ceb30000c060000004a00012
:10402000a5e2b70002c8bf000004e00007003200ac
:10403000412a20009140780000ccb30000c060000d
:104040003041b300a4e2b70007003700412a200046
:104050009140780000ccb30000c0600071c2b30092
:1040600001407000a4e2b7008560a9008d60a8003f
:10407000a1e2a80002c8bf000004e00005003a0069
:1040800000000000919b800000032000808f500002
:10409000fbff36000080fa0000000600809fbe0093
:1040a000821f78003400f80000c0b300a00188002f
:1040b0000c00fa000040eb0000e8b7000040eb0005
:1040c00001e8b7008560a90002c8bf000004e00055
:1040d0002900320000282000000f7800819b80001a
:1040e0001e007800100078000001780081804000f8
:1040f0006080200000804000020878001e8fe800e9
:10410000819b80001e00780010007800000178007c
:104110008180400060a020000080400002087800fc
:104120001e8fe800819b80001e0078001000780040
:10413000000178008180400060c0200000804000c5
:10414000020878001e8fe800809b80000000e800d5
:10415000809b8800819b8000f00f2000808f5000a2
:10416000690136000000eb00809b880010c0b3009e
:1041700001e8b70064013700c00120005015880035
:10418000212a20009140780030ccb30000c06000ac
:104190000034a000a2e2b700412a2000914078003c
:1041a00000ccb30000c0600071c2b30001407000d9
:1041b000a4e2b7004180200091407800d0c3b30052
:1041c00080cf50000f003a00c00f2000501588002b
:1041d000212a20009140780030ccb30000c060005c
:1041e0004041b300a2e2b700412a2000914078008c
:1041f00000ccb30000c060003041b300a4e2b700bf
:104200005f0037004180200091407800e0c3b30098
:1042100080cf50002c003a00212a200091407800e5
:1042200030ccb30000c060000044a000a2e2b700a0
:10423000412a20009140780000ccb30000c060000b
:104240007041b300a4e2b70003c8bf000080fb00c8
:10425000500798005e009000e10f500011003200fe
:10426000de009000e18f500004003c005e009000f2
:104270000000e0000800320041003700de0090003e
:10428000e28f50000a0032005e009000e30f500001
:104290000a0032003a003700c01121005015880092
:1042a00037003700c0212200501588003400370045
:1042b000c04124005015880031003700c08128001b
:1042c000501588002e00370004c8bf00e24f500090
:1042d0002b003a00212a20009140780030ccb30016
:1042e00000c060000044a000a2e2b700412a200004
:1042f0009140780000ccb30000c060007041b30072
:10430000a4e2b70003c8bf000080fb00400798008c
:10431000ce009000e18f5000110032004e0090005e
:10432000e10f500004003c00ce0090000100e000ce
:1043300008003200120037004e009000e20f5000db
:104340000a003200ce009000e38f50000a003200d5
:104350000b003700c01121005015880008003700fd
:10436000c02122005015880005003700c0412400fc
:104370005015880002003700c081280050158800c1
:1043800000282000000f7800819b80001e0078002c
:1043900010007800000178008180400060802000db
:1043a00000804000020878001e8fe800819b80009a
:1043b0001e00780010007800000178008180400025
:1043c00060a0200000804000020878001e8fe800f6
:1043d000819b80001e0078001000780000017800aa
:1043e0008180400060c0200000804000020878000a
:1043f0001e8fe800809b80000000e800809b880002
:10440000819b8000f00f2000808f50000400360058
:104410000000eb00809b880010c0b30001e8b700eb
:104420004180200091407800e0c3b30080cf50006d
:1044300024003a00909b80000000e800909b8800d8
:10444000919b800010032000808f500002003600f6
:104450000000eb00909b8800919b80001e0078007c
:1044600010007800000178008180400060e02000aa
:1044700000804000020878001e8fe800919b8000b9
:104480001e00780010007800000178008180400054
:10449000a0e6200000804000020878001e8fe8009f
:1044a000919b80001e0078001000780000017800c9
:1044b00081804000e0ec200000804000020878008d
:1044c0007f0037004180200091407800f0c3b300a6
:1044d00080cf500038003a0003c8bf000080fb00c6
:1044e000300798003e009000e10f500017003200a6
:1044f000be009000e18f500004003c003e009000a0
:104500000000e000080032006d003700be0090009f
:10451000e28f5000160032003e009000e30f500082
:104520001c003200660037001e0078001000780082
:10453000907988001e8fe8001e0078001000780037
:10454000d0798800e2e2a8005d0037001e00780004
:1045500010007800a07988001e8fe8001e00780007
:1045600010007800e0798800e302a80054003700ca
:104570001e00780010007800b07988001e8fe800d7
:104580001e00780010007800f0798800e802a8008a
:104590004b0037001e00780010007800c0798800ba
:1045a0001e8fe8001e00780010007800007a880056
:1045b000e822a8004200370004c8bf00e34f5000c3
:1045c0003f003a0003c8bf000080fb0020079800ae
:1045d000ae009000e18f5000190032002e009000d4
:1045e000e10f500004003c00ae0090000100e0002c
:1045f00008003200320037002e009000e20f500019
:104600001a003200ae009000e38f5000220032000a
:104610002b0037001e00780010007800107a880008
:104620001e8fe8001e00780010007800507a880085
:10463000e2e2a90010c0b30003e8b7002000370091
:104640001e00780010007800207a88001e8fe80095
:104650001e00780010007800607a8800e302a9004c
:1046600020c0b30003e8b700150037001e00780033
:1046700010007800307a88001e8fe8001e00780055
:1046800010007800707a8800e802a90030c0b300fa
:1046900003e8b7000a0037001e0078001000780019
:1046a000407a88001e8fe8001e0078001000780015
:1046b000807a8800e822a9000040eb0003e8b700f8
:1046c00004c8bf00304798008040eb0021479800a5
:1046d000f0c3b300be40900080cf5000020036000f
:1046e00010c0b30020479800be4090000140e80091
:1046f00004e8b7002e4090000004e0000200320001
:104700000040eb0004e8b70010c0b30000e8b700b9
:104710000080fa003400f9004f0178004f00be001d
:10472000004006000000fa0000c8bf000080fb0047
:104730000080fa00000006000000fa0001c8bf0077
:104740000080fb000080fa00000006000000fa0074
:10475000a1e2a8000080fa00000006000000fa00b4
:10476000a1e2a9000080fa00000006002800fa007b
:10477000889fbe008a1f78000000eb003007980079
:104780000000eb00200798000f0037003e0090006b
:104790008000400000342100808040000000eb00d9
:1047a000800878003e009000e80047004200dd00ed
:1047b000010140006000b8000089be003e0090008a
:1047c0000000e800300798003e009000e70f50001e
:1047d000eeff3400270037000000eb0030079800a0
:1047e0001e0037003e0590003e009000e8004700a4
:1047f0004200dd00010040001004be003e009000b9
:1048000041000700cf80de00080140008981480098
:10481000e80047004250dd00010040000288be0071
:104820006000b800008fbe000400370010002000b8
:10483000010020001e0f40005e974800703e2000df
:1048400001002000be0f1000ae8f1800f7ff3400eb
:104850003e0090000000e800300798003e00900005
:10486000e70f5000dfff34002e0090000000e8004a
:1048700020079800ae00900030062000808f500086
:10488000d5ff34000000eb00300798001700370018
:104890003e0590003e009000e80047004200dd0029
:1048a000010040001000be009fef07000004be00a2
:1048b0002e009000cf80de009bef07000001be00bd
:1048c0000800be007bf0070059f0070000017800e7
:1048d0008a00450000342100008040000208780072
:1048e0003e0090000000e800300798003e00900075
:1048f000e70f5000e6ff34004f0578004f04be007c
:104900000080fa00000006000400fa00000f7800a2
:10491000700020009e0f1000030036000000eb0026
:10492000100798000c0037001e007800800040003f
:1049300020f3200000804000100178001e00780065
:104940008000400020f4200000804000100078002b
:1049500000015100120798001e0090000080fa002c
:10496000000006000600fa00100798001e009000e4
:10497000e70f5000030036000000eb00200798000e
:104980002c0037001e0090008000400020f3200023
:1049900000804000100178001e0090008000400060
:1049a00020f4200000804000100078000001510039
:1049b0001e00900080004000003421000080400074
:1049c00010007800000f51001e0090008000400091
:1049d00020f320000080400010007800909a8800aa
:1049e0001e0090008000400020f420000080400065
:1049f00010007800a09a88001e00900080004000ff
:104a0000003421000080400010007800b09a880037
:104a10001e007800809a88001e00e0000300340029
:104a20001e00780020079800020037000000eb000d
:104a3000200798002e0090000080fa000000060079
:104a40000400fa00000f7800700020009e0f100094
:104a5000030036000000eb00100798000600370046
:104a60001e0078008000400020f3200000804000fd
:104a700010007800100798001e0090000080fa00d7
:044a8000000006002c
:020000040000fa
:0200000401f009
:04000000e6bf000057
:020000040000fa
:0200000401f009
:04000400ff7f00007a
:020000040000fa
:0200000401f009
:040008007fff000076
:020000040000fa
:0200000401f009
:04001400ffff0000ea
:020000040000fa
:1000080018260000182600001826000018260000f0
:1000180018260000182600001826000018260000e0
:1000280018260000182600001826000018260000d0
:100038001826000018260000b80a0000182600003c
:100048001826000018260000182600004e20000080
:1000580018260000182600001826000018260000a0
:100068001826000018260000182600001826000090
:100078001826000018260000182600001826000080
:10008800360f0000b81500001826000018260000da
:100098001826000018260000182600001826000060
:1000a8001826000018260000182600001826000050
:1000b8001826000018260000182600001826000040
:1000c8001826000018260000182600001826000030
:1000d8001826000018260000182600001826000020
:1000e8001826000018260000182600001826000010
:0800f800182600001826000084
:020000040000fa
:1001080018260000182600001826000018260000ef
:1001180018260000182600001826000018260000df
:1001280018260000182600001826000018260000cf
:100138001826000018260000b80a0000182600003b
:100148001826000018260000182600004e2000007f
:10015800182600001826000018260000182600009f
:10016800182600001826000018260000182600008f
:10017800182600001826000018260000182600007f
:10018800360f0000b81500001826000018260000d9
:10019800182600001826000018260000182600005f
:1001a800182600001826000018260000182600004f
:1001b800182600001826000018260000182600003f
:1001c800182600001826000018260000182600002f
:1001d800182600001826000018260000182600001f
:1001e800182600001826000018260000182600000f
:0801f800182600001826000083
:020000040000fa
:104a8400741300000200000000000000581300002e
:104a94001000000000000000d21200003c000000e2
:104aa40002000000010000000000000000000000ff
:104ab40000000000000000000000000000000000f2
:104ac400000000000a000100000b000000000200ca
:104ad400000b000001000300000b000002000500b1
:104ae400000b000003000a00000b0000050000009a
:104af400000b0000e0110000b00000000000000006
:104b0400681300000800000002000000d1225b00ce
:104b14003dda0f0049400000a61000003a010000f1
:104b240000000000761300000200000002000000f4
:104b340000000000520f00005401000000000000bb
:104b44009012000042000000020000000000f60085
:104b5400ffe2ff000f00000000000000f1ff1e0054
:104b6400000a00000a001e0000f1ff00000000001f
:104b7400000f0000e2fff600ff080000040002003e
:104b8400000000000000fc00fff8ff00f0fff00050
:104b9400fff8ff00fcff000000000000020004001a
:104ba400000800000e1300003200000000000000a6
:104bb4007013000004000000020000000000000068
:104bc4000000000000080000520700000000000080
:104bd40040130000180000000000000078130000db
:104be4000200000000000000c013000006000000e6
:104bf400020000000400000000000000c6130000d2
:104c0400060000000200000022007c0013220000c5
:104c14007c13000044000000000000007a13000030
:0c4c240002000000000000000000000082
:020000040000fa
:044c30000000fe0082
:00000001FF
